:100000000C9465000C948D000C948D000C948D0064
:100010000C948D000C948D000C9474160C948D002F
:100020000C948D000C948D000C948D000C948D001C
:100030000C948D000C948D000C948D000C948D000C
:100040000C944D070C948D000C941B070C94F50632
:100050000C948D000C948D000C948D000C948D00EC
:100060000C948D000C948D00000102030405000027
:1000700000002300260029000000000024002700C3
:100080002A0000000000250028002B0004040404BE
:100090000404040402020202020203030303030332
:1000A000010204081020408001020408102001020F
:1000B00004081020000000080002010000030407EB
:1000C0000000000000000000771611241FBECFEFD3
:1000D000D8E0DEBFCDBF11E0A0E0B1E0E6E4F3E39D
:1000E00002C005900D92AC3CB107D9F723E0ACEC0F
:1000F000B1E001C01D92AE32B207E1F710E0C5E6F3
:10010000D0E004C02197FE010E948B19C436D107AC
:10011000C9F70E94CB160C94A1190C940000AF9261
:10012000BF92CF92DF92EF92FF920F931F93CF93E4
:10013000DF936C017B018B01040F151FEB015E0146
:10014000AE18BF08C017D10759F06991D601ED91DB
:10015000FC910190F081E02DC6010995892B79F77A
:10016000C501DF91CF911F910F91FF90EF90DF902C
:10017000CF90BF90AF900895FC01538D448D252FF3
:1001800030E0842F90E0821B930B541710F0CF9631
:10019000089501970895FC01918D828D981761F063
:1001A000A28DAE0FBF2FB11D5D968C91928D9F5F7A
:1001B0009F73928F90E008958FEF9FEF0895FC0159
:1001C000918D828D981731F0828DE80FF11D858D0C
:1001D00090E008958FEF9FEF0895FC01918D228D9F
:1001E000892F90E0805C9F4F821B91098F73992724
:1001F00008958CE692E00E94ED0021E0892B09F43D
:1002000020E0822F08950E94F90081110C940000D3
:10021000089580E090E0892B11F00C94030108957B
:10022000FC01A48DA80FB92FB11DA35ABF4F2C916B
:10023000848D90E001968F739927848FA689B78962
:100240002C93A089B1898C91837080648C93938D59
:10025000848D981306C00288F389E02D80818F7DFC
:1002600080830895EF92FF920F931F93CF93DF93B4
:10027000EC0181E0888F9B8D8C8D98131AC0E889E2
:10028000F989808185FF15C09FB7F894EE89FF89B1
:100290006083E889F98980818370806480839FBF4F
:1002A00081E090E0DF91CF911F910F91FF90EF904F
:1002B0000895F62E0B8D10E00F5F1F4F0F7311275F
:1002C000E02E8C8D8E110CC00FB607FCFACFE8899A
:1002D000F989808185FFF5CFCE010E941001F1CF11
:1002E000EB8DEC0FFD2FF11DE35AFF4FF0829FB70E
:1002F000F8940B8FEA89FB8980818062CFCFCF93FE
:10030000DF93EC01888D8823B9F0AA89BB89E8893D
:10031000F9898C9185FD03C0808186FD0DC00FB6E3
:1003200007FCF7CF8C9185FFF2CF808185FFEDCF61
:10033000CE010E941001E9CFDF91CF91089590E0A6
:10034000FC01EC54FF4F2491FC01E056FF4F349127
:10035000FC01E457FF4FE491EE23C9F0222339F06A
:10036000233001F1A8F4213019F1223029F1F0E015
:10037000EE0FFF1FEE57FF4FA591B4918FB7F89482
:10038000EC91611126C030953E233C938FBF0895B8
:100390002730A9F02830C9F0243049F78091800037
:1003A0008F7D03C0809180008F7780938000DFCFA6
:1003B00084B58F7784BDDBCF84B58F7DFBCF8091F3
:1003C000B0008F778093B000D2CF8091B0008F7D46
:1003D000F9CF3E2BDACF20910C0330910D034091E1
:1003E0000E0350910F032417350721F0682F822F39
:1003F0000C949F010895682F80910E030E949F0125
:1004000080912603909127038230910538F0880F60
:10041000991F880F991F05970197F1F7089581E0BB
:100420000C94FB01CF93DF9390E0FC01E056FF4F6B
:10043000249184579F4FFC0184918823D1F090E050
:10044000880F991FFC01E858FF4FA591B491FC015A
:10045000EE57FF4FC591D49161110EC09FB7F8942C
:100460008C91E22FE0958E238C932881E223E88300
:100470009FBFDF91CF9108958FB7F894EC91E22B55
:10048000EC938FBFF6CF3FB7F89480910302909121
:100490000402A0910502B091060226B5A89B05C0F2
:1004A0002F3F19F00196A11DB11D3FBFBA2FA92FF3
:1004B000982F8827BC01CD01620F711D811D911DF0
:1004C00042E0660F771F881F991F4A95D1F708955C
:1004D0008EBD00000DB407FEFDCF8EB50895FC0162
:1004E00001900020E9F73197AF01481B590BBC017F
:1004F0008CE692E00C948F00CF93DF930E946F0202
:10050000EC018EE191E00E946F028C0F9D1FDF9144
:10051000CF9108950F931F93009110031091110331
:10052000209112033091130340E052E16AE770E03A
:1005300080E0041715072607370740F4769567957E
:10054000579547958F5F8630A1F787E0982F906A7F
:100550009695809581709CBD8DBD80E01F910F9117
:100560000C94FB01CF93C82F0E948A028C2F8062CB
:100570000E94680280931403CF910C940F02CF93D2
:10058000DF93D82FC62F0E948A028D2F80620E948F
:100590006802809314038C2F0E946802DF91CF9130
:1005A0000C940F0263E083E00E94BF0285E0809319
:1005B0001F030895CF93C82F0E948A028C2F0E9498
:1005C0006802809314038FEF0E946802C82F0E9474
:1005D0000F028C2FCF9108950F931F93CF93182F55
:1005E000C62F0E948A02812F80620E946802809337
:1005F000140307E011E0C15030F0F80181918F0140
:100600000E946802F8CFCF911F910F910C940F02B6
:100610000E948A0280E50E9468028093140383E7A7
:100620000E9468020C940F02CF93DF93CDB7DEB720
:10063000A3970FB6F894DEBF0FBECDBF8AE0882E19
:10064000912CA12CB12C42E350E0BE016E5D7F4F96
:100650008091D7019091D8010E944910813099F77B
:100660008091D5019091D6010E946B0E813059F78F
:100670008091200310E002E0811107C01091150362
:10068000012F133008F002E0101B0E948A0280EA5A
:100690000E94680280931403CE0182967C0101506F
:1006A00030F0F70181917F010E946802F8CF11506C
:1006B00020F080E00E946802FACF0E940F0281E0E1
:1006C0000E94EB018FB7F894C090FF01D090000218
:1006D000E0900102F09002028FBF8FEF0E94B20201
:1006E00080911403807309F06AC02FB7F894809149
:1006F000FF0190910002A0910102B09102022FBF70
:100700008C199D09AE09BF0980369105A105B10577
:1007100020F381E0809321038091D3019091D40153
:100720000E946B0E813009F03FC081E291E00E948F
:100730006F02CAA0DBA00D2C000CEE08FF08F7FE2C
:100740004DC06DE28CE692E00E94320122273327F1
:10075000A9012C193D094E095F0919A2CE01819604
:100760007C01CA01B901A50194010E946919605D6B
:10077000F70162937F01211531054105510589F784
:10078000E114F10419F0C7010E946F028EE191E0BB
:100790000E946F0250E040E070E060E08091D30181
:1007A0009091D4010E94400D50E040E070E060E084
:1007B0008091D5019091D6010E94400D44CF80E0F8
:1007C0000E94EB0160E787E00E94BF028091140362
:1007D00084FFA2CF81EE0E94B2029ECFA7019601B4
:1007E00019A2CE0181967C01CA01B901A50194012B
:1007F0000E946919605DF70162937F01211531053F
:100800004105510589F7BCCFCF93DF93CDB7DEB754
:100810002A970FB6F894DEBF0FBECDBF04E010E0FC
:1008200083E0E82EF12C92E0C92ED12CAA24A394C7
:10083000B12C45E050E0BE016F5F7F4F8091D10148
:100840009091D2010E944910813099F745E050E023
:10085000BE016B5F7F4F8091D1019091D2010E94C8
:100860004910813031F78091D3019091D4010E94D9
:100870006B0E8130F1F62D813E8189819A81A9012B
:10088000481B590B8F819885285231092431310535
:1008900010F59C012852310924313105E0F481E33F
:1008A00091E00E947C02BA86A98650E040E070E0A8
:1008B00060E08091D3019091D4010E94400D45E009
:1008C00050E0BE01675F7F4F8091D7019091D801C2
:1008D0000E94400DAECF141615063CF483E491E05F
:1008E0000E947C02DA86C986E0CF452B39F087E486
:1008F00091E00E947C02FA86E986D7CF2B813C8169
:10090000821B930B181619063CF48DE491E00E94AB
:100910007C021A870987C9CF892B39F283E591E0D8
:100920000E947C0285E090E09A878987BECFE091A3
:100930007C02F0917D0282E08083E0917802F09168
:1009400079021082E0917A02F0917B028FEC808331
:1009500010928402E0918002F091810286E080830F
:10096000E0917E02F0917F02808180618083E0913E
:100970007E02F0917F02808188608083E0917E0218
:10098000F0917F02808180688083E0917E02F09107
:100990007F0280818F7D808361E083E00E9412026C
:1009A00060E082E00E94120261E085E00E94120293
:1009B00060E084E00E941202CFB7F8948091D001E9
:1009C000811127C0E6E9F0E08491EAEAF0E0949131
:1009D000E82FF0E0EE0FFF1FE858FF4FA591B4910C
:1009E000EC91E92321F461E08AE00E949F0161E03B
:1009F0008AE00E9412028CB580618CBD8CB5806447
:100A00008CBD61E08DE00E94120261E08BE00E94EB
:100A100012028091D0018F5F8093D001CFBF80916F
:100A20000C0390910D038F3F980709F4ABC0209100
:100A30000E0330910F032F3F320709F4A3C0821732
:100A4000930741F061E00E94120261E080910E0381
:100A50000E94120280E00E94EB0181E00E94FB01F3
:100A60000E9443026B017C0135E0832E912CA12C66
:100A7000B12C0E9443026C197D098E099F09683EC2
:100A8000734081059105A8F381E0881A9108A108B7
:100A9000B10828EEC20E23E0D21EE11CF11C811425
:100AA0009104A104B10429F76FE584E00E94BF021C
:100AB00085E590E0A0E0B0E08093220390932303CB
:100AC000A0932403B093250367E086E00E94BF0251
:100AD0008DE10E94DA02C82F0E9408038DE10E9476
:100AE000DA0291E0C81390E090931C03882341F050
:100AF000C81302C00E94080360E08DE10E94BF029B
:100B000010921E0360E08CE10E94BF02109220034D
:100B10006FE381E00E94BF0263E082E00E94BF02B7
:100B200080E280931503C1E1609115038C2F0E9430
:100B3000BF02CF5FC731C1F70E94D2026CE485E0EB
:100B40000E94BF0260E787E00E94BF0282EE0E941F
:100B5000B20281EE0E94B2026CE080E00E94BF020D
:100B600080E00E94DA0280931B0381FD0BC0682F96
:100B7000626060931B0380E00E94BF028BE19EE4F1
:100B80000197F1F783E00E94DA0220911F032250BF
:100B9000330B82171306B1F786E691E00E947C02C0
:100BA00060911F038AE00E94EC0260911F0380E1C4
:100BB0000E94EC020E94D20286E00E94DA02887F44
:100BC000682F616086E00E94BF0280E00E94EB0116
:100BD00080912203909123038230910538F0880F91
:100BE000991F880F991F05970197F1F780911E03B0
:100BF000882319F081EE0E94B20260911B036E7F80
:100C000060931B0380E00E94BF0282E00E94DA0230
:100C1000E8E6F0E0E49161E070E001C0660FEA957B
:100C2000EAF7682B82E00E94BF0264E082E00E9443
:100C300080159093D2018093D10162E08AE00E94F6
:100C400080159093D8018093D7018091D301909122
:100C5000D401892B71F40E94C8159093D40180931C
:100C6000D301009731F050E040E070E060E00E9476
:100C7000400D8091D5019091D601892B71F40E948D
:100C8000C8159093D6018093D501009731F050E0BC
:100C900040E070E060E00E94400D8091D1019091B1
:100CA000D201892BE9F010E000E021E040E850E0BB
:100CB00060E771E083ED96E00E944F1422E040E887
:100CC00050E060E871E084E094E00E944F1423E07B
:100CD00040E850E064E971E084E193E00E944F1441
:100CE00085EA91E00E947C020E94E0158AEB91E087
:100CF0000E947C02FFCF0F931F93CF93DF93182F97
:100D0000EB0160E00E949F0183E090E00197F1F722
:100D100061E0812F0E949F0183E290E00197F1F74B
:100D200060E0812F0E949F01FE01E056FF4F649119
:100D3000FE01E457FF4FE491F0E0EE0FFF1FE25990
:100D4000FF4F8591949100E412E42FE030E0462FAC
:100D50000E949707611571058105910529F06F5F64
:100D60007F4F8F4F9F4F9F70072E000C880B990B62
:100D70000E943A1826E933E44BE05DE30E947518BF
:100D800020E030E040E05FE30E9475180E943319D4
:100D9000CB016D33710514F08CE390E0DF91CF91BE
:100DA0001F910F910895CF93DF9300D000D0CDB75E
:100DB000DEB764E070E085E090E00E947B069C83F3
:100DC0008B8362E070E083E090E00E947B069A8370
:100DD000898345E050E0BE016F5F7F4F8091D10174
:100DE0009091D2010E94400DE4CF1F920F920FB656
:100DF0000F9211242F933F934F935F936F937F93A1
:100E00008F939F93AF93BF93EF93FF938CE692E002
:100E10000E941001FF91EF91BF91AF919F918F912F
:100E20007F916F915F914F913F912F910F900FBEE6
:100E30000F901F9018951F920F920FB60F921124CA
:100E40002F938F939F93EF93FF93E0917C02F09108
:100E50007D028081E0918202F091830282FD1BC0BD
:100E60009081809185028F5F8F7320918602821717
:100E700041F0E0918502F0E0E459FD4F958F8093B9
:100E80008502FF91EF919F918F912F910F900FBE4F
:100E90000F901F9018958081F4CF1F920F920FB67C
:100EA0000F9211242F933F938F939F93AF93BF93F0
:100EB0008091FF0190910002A0910102B091020285
:100EC0003091FE0123E0230F2D3758F50196A11D27
:100ED000B11D2093FE018093FF0190930002A09327
:100EE0000102B09302028091030290910402A0914A
:100EF0000502B09106020196A11DB11D8093030267
:100F000090930402A0930502B0930602BF91AF91A3
:100F10009F918F913F912F910F900FBE0F901F9037
:100F2000189526E8230F0296A11DB11DD2CFCF92AE
:100F3000DF92EF92FF920F931F93E82FF92F05C0D6
:100F4000015011092109310961F19081962394170B
:100F5000B9F305C0015011092109310911F190813E
:100F600096239413F7CFC12CD12CE12CF12C0AC07D
:100F70008FEFC81AD80AE80AF80A0C151D052E05C5
:100F80003F0579F080818623841791F36C2D7D2DA8
:100F90008E2D9F2D1F910F91FF90EF90DF90CF909E
:100FA000089560E070E080E090E01F910F91FF9065
:100FB000EF90DF90CF900895E0910902F0910A023E
:100FC0008081811107C08FEF9FEF9093F50180938F
:100FD000F4010895E0910902F0910A020580F6817A
:100FE000E02D80819181F1CFFC01DB010FB6F894F7
:100FF0000F9240913B0250913C022D913C911197F0
:101000002F3F320711F18181928160913D02708101
:10101000761749F04817590730F01D921C9281E06D
:101020000F900FBE0895481B590B42175307A8F79E
:10103000241B350B2D933C9380913D02808380913E
:101040003B0290913C029283818380E0E9CFCF9371
:10105000DF93DC011596ED91FC910680F781E02D80
:10106000A489B5898685978520893189EC013D83DE
:101070002C83C089D1899B838A83CF010C961196DA
:101080002D913C9112972817390721F41296DC9381
:10109000CE931197158A148A2C9121502C9320916C
:1010A000F201211157C0A285B385848195812681E3
:1010B0003781EC013D832C83C681D7819B838A8352
:1010C000CF01029611962D913C911297281739075E
:1010D00021F41296DC93CE931197138612862C91ED
:1010E00021502C93C68920916B022C1710F4C093C9
:1010F0006B0229E02C9FE0011124C25CDD4F0980C6
:10110000DA81C02DD583C4834C815D8157834683AA
:10111000AC81BD8113969C938E9312979D838C8393
:10112000A689A29FD0011124A25CBD4FB387A287DC
:101130008C918F5F8C93A091CC01B091CD01968959
:1011400056968C91891730F581E08093F101DF91FB
:10115000CF910895A0911E02B0911F02B787A68774
:1011600014962D913C911597318B208B1496CD912F
:10117000DC9115979B838A8315969C938E93149785
:101180008DE192E0958B848B80911D028F5F80931F
:101190001D02D1CF80E0DBCF0FB6F8940F92809183
:1011A0003B0290913C020F900FBE08958091F20196
:1011B0008F5F8093F20108950FB6F8940F92FC01AF
:1011C000928D0F900FBE81E0911180E00895EF9213
:1011D000FF920F931F93CF93DF93EC010FB6F89418
:1011E0000F921E8D7C0181E1E80EF11C01E01116C9
:1011F000D4F08FEF8E8F0F900FBE0FB6F8940F9232
:101200001D8D7E0188E0E80EF11C01E01116B4F09E
:101210008FEF8D8F0F900FBEDF91CF911F910F91A8
:10122000FF90EF9008958989882319F3C7010E94E0
:10123000270881110093F1011150D9CF88858823A7
:1012400039F3C7010E94270881110093F101115061
:10125000DDCFCF93DF93FC01A085B185828193819F
:1012600024813581EC013D832C83C481D5819B830E
:101270008A8311968D919C9112978E179F0721F466
:101280001296DC93CE931197118610868C91815023
:101290008C938C91DF91CF9108950F931F93CF93EF
:1012A000DF938C01FB0180819181D80113968F3FE0
:1012B0009807F1F4E801AF81B88512968D919C9161
:1012C000139793838283EC01FD83EC83B583A4831E
:1012D0001396FC93EE93129711870087F801808193
:1012E0008F5F8083DF91CF911F910F910895D90176
:1012F00012962D913C911397E901488159818417E9
:101300009507A8F7DACFFC01738362839187808702
:101310004617570790F0421B530B84859585481755
:101320005907C8F4BF016E5F7F4F8091FA01909119
:10133000FB010E944D0980E008954217530718F4FD
:101340006217730740F4BF016E5F7F4F8091FC010D
:101350009091FD01EECF81E00895EF92FF920F93FF
:101360001F93CF93DF93EC018B017A016C857D8510
:10137000600F711F9801A701CE010E94830981119E
:1013800007C0DF91CF911F910F91FF90EF900895CB
:101390008C859D85080F191FE889F989CE0109956B
:1013A000E5CFEF92FF920F931F93CF93DF938C01C2
:1013B0007B01E091FC01F091FD010580F681E02DBB
:1013C000C681D781CE0102960E9429098A8982FFAF
:1013D0000FC0A701B801CE010E94AD09E889F989C3
:1013E000CE01DF91CF911F910F91FF90EF90099463
:1013F0008E7F8A8BF3CFE091FC01F091FD0180811B
:1014000081110DC08091FA019091FB019093FD0133
:101410008093FC01F093FB01E093FA0108950580AD
:10142000F681E02D6FEF7FEF808191810E94D109DD
:10143000E2CFFF920F931F93CF93DF93EC01F62E31
:1014400000913B0210913C028091CC019091CD0122
:1014500002960E942909CF3FDC07E9F5FF20D9F168
:10146000E0910C02F0910D02A091CC01B091CD0160
:101470001596FC93EE931497A091CC01B091CD01F9
:101480008481958117969C938E9316978091CC01B9
:101490009091CD01A481B581029613969C938E9371
:1014A00012978091CC019091CD010296958384830F
:1014B000E091CC01F091CD018BE092E0938782879F
:1014C00080910B028F5F80930B02DF91CF911F9170
:1014D0000F91FF900895C00FD11FE091CC01F091C2
:1014E000CD01D383C2836091CC017091CD01C0172F
:1014F000D10768F480910702909108026E5F7F4FD8
:10150000DF91CF911F910F91FF900C944D09809125
:10151000090290910A026E5F7F4F0E944D098091EF
:10152000F4019091F501C817D90778F6D093F50129
:10153000C093F401CACFCF93DF93EB016091CC014C
:101540007091CD01645F7F4F0E944D0961E0CE0133
:10155000DF91CF910C94190AFC0103969283818349
:101560002FEF3FEF34832383968385839087878390
:10157000108208950F920FB6F8940F921F921124C3
:101580002F923F924F925F926F927F928F929F9293
:10159000AF92BF92CF92DF92EF92FF920F931F9381
:1015A0002F933F934F935F936F937F938F939F936B
:1015B000AF93BF93CF93DF93EF93FF93A091CC01B1
:1015C000B091CD010DB60D920EB60D928091F20143
:1015D000882321F081E08093F1015FC01092F10136
:1015E000A091CC01B091CD01E091CC01F091CD0161
:1015F0002D913C918789908D82179307A8F0809157
:10160000CC019091CD018091CC019091CD01259A92
:101610002D9A2FEF87EA91E6215080409040E1F724
:1016200000C000001D9AF5CF20916B0289E001C037
:101630002150422F50E0849FF001859FF00D11242E
:10164000E25CFD4F9081992399F3A181B2811296BA
:101650000D90BC91A02DB283A183289FC0011124BD
:101660008F5B9D4FA817B90729F412968D919C9115
:101670009283818389E0849FF001859FF00D11247E
:10168000E25CFD4F0180F281E02D8681978190938D
:10169000CD018093CC0120936B02A091CC01B0913D
:1016A000CD01CD91CDBFDD91DEBFFF91EF91DF91F7
:1016B000CF91BF91AF919F918F917F916F915F91EA
:1016C0004F913F912F911F910F91FF90EF90DF90DD
:1016D000CF90BF90AF909F908F907F906F905F90D2
:1016E0004F903F902F901F900F900FBE0F90089536
:1016F0008F929F92BF92CF92DF92EF92FF920F93C1
:101700001F93CF93DF930FB6F8940F928091F2015D
:1017100081508093F2018091F201882379F080E07A
:101720000F900FBEDF91CF911F910F91FF90EF901F
:10173000DF90CF90BF909F908F90089580913A0254
:10174000882369F3E0902202F0902302F0E0E0E0C9
:1017500039E041E080911D0281115EC0EF2B11F054
:101760000E94DC07E090EF01F090F001E114F10439
:1017700009F47DC189E0D82ECC24C3940FEF1FEF6C
:101780008091F201811161C1C0913B02D0913C0274
:101790004E018FEF881A980A90923C0280923B0289
:1017A00081149104B9F48091090290910A02209168
:1017B00007023091080230930A02209309029093A5
:1017C00008028093070280913D028F5F80933D0263
:1017D0000E94DC078091F4019091F501B12C8816EC
:1017E000990608F026C1E091CC01F091CD01E6897F
:1017F000DE9EF0011124E25CFD4F8081823010F00A
:10180000BB24B3948091F101811103C0BB2009F482
:1018100025C1C092F10122C1D7011696ED91FC912C
:10182000A489B5896685778580899189EB019D8337
:101830008C8380899189EC017B836A83BF01645F1B
:101840007F4F11960D911C9112970617170721F4DF
:1018500012969C938E931197158A148A8C918150BD
:101860008C93A285B3858481958166817781EC0113
:101870007D836C8366817781EB019B838A83CF01B3
:10188000029611960D911C9112970817190721F4D1
:1018900012967C936E931197138612862C91215089
:1018A0002C93A68920916B022A1710F4A0936B0247
:1018B0003A9FD0011124A25CBD4F11960D90BC91AE
:1018C000A02DB583A48314966D917C911597778391
:1018D000668314966D917C911597EB019B838A83A7
:1018E00015969C938E9314979689939FD0011124FB
:1018F000A25CBD4FB387A2878C918F5F8C93A09120
:10190000CC01B091CD0156968C91981708F422CF56
:101910004093F1011FCFE0910902F0910A02058086
:10192000F681E02D0680F781E02D82819381881673
:10193000990628F49093F5018093F40154CFC28561
:10194000D3858481958126813781DC0115963C936E
:101950002E93149726813781D90113969C938E93E9
:101960001297CF01029649815A814817590711F4FD
:101970003A83298313861286288121502883A489DB
:10198000B5891097F9F02685378540895189E90195
:101990005D834C8340895189EA013B832A831196F8
:1019A0006D917C9112979F01245F3F4F62177307DF
:1019B00021F412965C934E931197158A148A2C91F8
:1019C00021502C93A68920916B022A1710F4A09322
:1019D0006B02DA9ED0011124A25CBD4F11960D90CE
:1019E000BC91A02DB583A48314962D913C9115979D
:1019F0003783268314962D913C911597E9019B839B
:101A00008A8315969C938E93149796899D9DD001F9
:101A10001124A25CBD4FB387A2878C918F5F8C93FA
:101A2000E091CC01F091CD018689981710F0BB248C
:101A3000B394E0910902F0910A02808181116BCF89
:101A40001093F5010093F401CECE8091EF019091B7
:101A5000F00101969093F0018093EF01D1E0ED1A2F
:101A6000F10809F08DCE1092F0011092EF018091F3
:101A7000F101882309F453CE0E94BA0A81E050CEC6
:101A8000AF92BF92DF92EF92FF920F931F93CF938B
:101A9000DF9300D000D01F92CDB7DEB78C017B0161
:101AA0005D834C8380E0580198E0A90EB11C0FB60D
:101AB000F8940F92D8015A962C915A975B969C9164
:101AC0005B97291708F0AFC05A96DC905A975C963E
:101AD0004C915C9741118CC08D919C91892B11F098
:101AE00080E00AC0F801E480F580E114F10431F5EA
:101AF00080E0F80115821482D394D8015A96DC92C2
:101B00005A9751969C91992321F0C80141960E94C1
:101B1000270881110E94BA0A0F900FBE81E00F9032
:101B20000F900F900F900F90DF91CF911F910F9119
:101B3000FF90EF90DF90BF90AF900895D7019296FD
:101B40008C919297815092968C93929756962C9165
:101B5000569791969C91291759F28111C9CF570137
:101B6000B2E0AB0EB11CC5010E942909F70181A1A9
:101B7000868B482F50E025E030E0241B350B35875D
:101B8000248790916B02981710F480936B0289E080
:101B9000849FD001859FB00D1124A25CBD4F11968A
:101BA0000D90BC91A02DF701B583A48314962D91BF
:101BB0003C911597378326831496ED91FC911597E8
:101BC000B382A2821596BC92AE921497D701569614
:101BD000EC915697E89FF0011124E25CFD4F1B96B3
:101BE000FC93EE931A9780818F5F808381E081CF91
:101BF00050E0B70112968D919C910E949119F801C5
:101C0000848D22813381820F932F911D9383828350
:101C1000248135818217930708F462CF80819181F6
:101C2000938382835DCF2C813D81232B21F40F9000
:101C30000FBE80E074CF811109C080913D0289837D
:101C400080913B0290913C029B838A830F900FBE50
:101C50000E94D6080FB6F8940F92F801858D8F3F39
:101C600009F4158ED8015E968C915E978F3F11F422
:101C70005E961C920F900FBEBE016C5F7F4FCE012F
:101C800001960E94F407811120C00FB6F8940F92BC
:101C9000F801928D838D0F900FBE981310C06C8148
:101CA0007D81C5010E949B0AC8010E94E7080E942D
:101CB000780B811102C00E94BA0A81E0F8CEC801F7
:101CC0000E94E7080E94780BF8CFC8010E94E7083D
:101CD0000E94780BAECF7F928F929F92AF92BF926D
:101CE000CF92DF92EF92FF920F931F93CF93DF93E8
:101CF00000D000D01F92CDB7DEB78C0185E090E018
:101D00009D838C83D12C90E0580121E1A20EB11C5F
:101D100089E0782E25E0822E912C0FB6F8940F9250
:101D2000D8015A968C915A97882309F440C0815063
:101D30005A968C935A978D919C91892BA1F48091FE
:101D4000CC019091CD01892B39F0E091CC01F0913B
:101D5000CD0182A18F5F82A38091CC019091CD01B2
:101D6000F80195838483D80118968C91882339F0E3
:101D7000C80108960E94270881110E94BA0A0F9094
:101D80000FBEDD24D3948D2D0F900F900F900F90E8
:101D90000F90DF91CF911F910F91FF90EF90DF9007
:101DA000CF90BF90AF909F908F907F9008952C819F
:101DB0003D81232B21F40F900FBED12CE4CF911144
:101DC00009C080913D02898380913B0290913C0241
:101DD0009B838A830F900FBE0E94D6080FB6F8949B
:101DE0000F92F801858D8F3F09F4158ED8015E960C
:101DF0008C915E978F3F11F45E961C920F900FBEF0
:101E0000BE016C5F7F4FCE0101960E94F4078111E5
:101E1000AEC0C8010E94DC08882309F4A2C0F80102
:101E200080819181892B09F076C00FB6F8940F92CA
:101E3000E480F580E114F10409F491C0F70186898A
:101E4000E091CC01F091CD019689891708F07BC013
:101E5000D7011C962D913C911D9737FD0CC0E09148
:101E6000CC01F091CD0196899401291B31091D9671
:101E70003C932E931C97879DC0011124825C9D4F3B
:101E8000F701228533852817390709F054C0670107
:101E9000F2E0CF0ED11CC6010E942909E091CC01CD
:101EA000F091CD01E689D7015696EC9380916B02B3
:101EB0008E1710F4E0936B027E9EF0011124E25C19
:101EC000FD4F0180F281E02DD7011596FC93EE9332
:101ED00014978481958117969C938E931697A4816D
:101EE000B5811396DC92CE921297D582C482D70127
:101EF0005696EC915697E79DF0011124E25CFD4F58
:101F00001B96FC93EE931A9780818F5F8083DD246C
:101F1000D3940F900FBE6C817D81C5010E949B0AF6
:101F2000C8010E94E7080E94780B811102C00E943C
:101F3000BA0A91E0F2CEE091CC01F091CD01868910
:101F4000F701868BE4CFE091CC01F091CD01DD2447
:101F5000D394D70191969C9186899817D0F2D12C71
:101F6000D8CFC8010E94E7080E94780BE2CFC801D1
:101F70000E94E7080E94780BC8010E94DC088823B1
:101F8000C1F2DD2009F4FFCE0FB6F8940F92F801EC
:101F90008189882309F47BC00688F789E02D908128
:101FA00085E0891BD80114960D911C91011511052E
:101FB00009F401CFF80191A1981708F4982FD801DE
:101FC00056968C915697981709F4F5CE92962C91C7
:101FD0009297213009F0EFCE56969C9356971C9617
:101FE0002D913C911D9737FD08C025E030E0291B5D
:101FF00031091D963C932E931C97B9E08B9FC0012D
:102000001124825C9D4FF8012285338528173907FA
:1020100009F0D1CE7801F2E0EF0EF11CC7010E9469
:102020002909F801A68980916B028A1710F4A09300
:102030006B0289E08A9FD0011124A25CBD4F1196EA
:102040000D90BC91A02DF801B583A48314962D9119
:102050003C911597378326831496ED91FC91159743
:10206000F382E2821596FC92EE921497D80156966E
:10207000EC915697E89FF0011124E25CFD4F1B960E
:10208000FC93EE931A9780818F5F808394CE80E0DB
:1020900089CFAF92BF92CF92DF92FF920F931F939F
:1020A000CF93DF9300D000D01F92CDB7DEB78C0165
:1020B0006B015D834C8380E0580191E1A90EB11C56
:1020C0000FB6F8940F92F801F28CFF20C1F1448D05
:1020D0004423B1F050E086819781840F951F978348
:1020E0008683248135818217930720F08081918136
:1020F00097838683F80166817781C6010E949119D2
:10210000FA94F801F28E8085882339F0C801089688
:102110000E94270881110E94BA0A0F900FBE81E029
:102120000F900F900F900F900F90DF91CF911F9114
:102130000F91FF90DF90CF90BF90AF9008952C81CA
:102140003D81232B21F40F900FBE80E0E9CF811158
:1021500009C080913D02898380913B0290913C02AD
:102160009B838A830F900FBE0E94D6080FB6F89407
:102170000F92F801858D8F3F09F4158EF801868D39
:102180008F3F09F4168E0F900FBEBE016C5F7F4F1C
:10219000CE0101960E94F40781111BC0C8010E9464
:1021A000DC08882381F06C817D81C5010E949B0A37
:1021B000C8010E94E7080E94780B811102C00E94AA
:1021C000BA0A81E07DCFC8010E94E7080E94780B1F
:1021D000F8CFC8010E94E7080E94780BC8010E944E
:1021E000DC08882371F3B1CF0F920FB6F8940F92E9
:1021F0001F9211242F923F924F925F926F927F9283
:102200008F929F92AF92BF92CF92DF92EF92FF9206
:102210000F931F932F933F934F935F936F937F93EE
:102220008F939F93AF93BF93CF93DF93EF93FF93DE
:10223000A091CC01B091CD010DB60D920EB60D92CC
:1022400013BE8091F2018111F9C080913B029091FF
:102250003C02019690933C0280933B02009781F5EB
:102260002091090230910A02409107025091080220
:1022700050930A0240930902309308022093070208
:1022800020913D022F5F20933D02E0910902F091E1
:102290000A022081211107C02FEF3FEF3093F50193
:1022A0002093F4010DC0E0910902F0910A0205802B
:1022B000F681E02D208131813093F5012093F401E6
:1022C0002091F4013091F5018217930710F420E07A
:1022D000A1C020E039E0D32EE0910902F0910A027A
:1022E0003081311107C08FEF9FEF9093F5018093FC
:1022F000F40190C0E0910902F0910A020580F68194
:10230000E02D0680F781E02D4281538184179507E7
:1023100028F45093F5014093F4017CC0A285B38565
:102320004481558166817781EA017D836C83668172
:102330007781EB015B834A83AF014E5F5F4F11965C
:102340000D911C9112970417150721F412967C9396
:102350006E931197138612863C9131503C93A48959
:10236000B5891097F9F06685778500891189EB01A9
:102370001D830C8300891189E8017B836A83119690
:10238000ED90FC901297BF01645F7F4FE616F70651
:1023900021F412961C930E931197158A148A3C917E
:1023A00031503C93A68930916B023A1710F4A093F8
:1023B0006B02DA9ED0011124A25CBD4F11960D90E4
:1023C000BC91A02DB583A48314966D917C91159733
:1023D0007783668314966D917C911597EB015B83EF
:1023E0004A8315965C934E93149746894D9DD00170
:1023F0001124A25CBD4FB387A2873C913F5F3C9301
:10240000E091CC01F091CD013689431708F464CFF7
:1024100021E062CFE091CC01F091CD01E689D9E0D5
:10242000ED9FF0011124E25CFD4F8081823008F0C5
:1024300021E08091F10181110EC00AC08091EF016D
:102440009091F00101969093F0018093EF016AC0A2
:10245000222309F467C08091F201882321F081E0F2
:102460008093F1015FC01092F101A091CC01B09175
:10247000CD01E091CC01F091CD012D913C91878966
:10248000908D82179307A8F08091CC019091CD0197
:102490008091CC019091CD01259A2D9A2FEF87EA5A
:1024A00091E6215080409040E1F700C000001D9A65
:1024B000F5CF20916B0289E001C02150422F50E0FE
:1024C000849FF001859FF00D1124E25CFD4F908107
:1024D000992399F3A181B28112960D90BC91A02D00
:1024E000B283A183289FC00111248F5B9D4FA81741
:1024F000B90729F412968D919C919283818389E08A
:10250000849FF001859FF00D1124E25CFD4F018056
:10251000F281E02D868197819093CD018093CC014B
:1025200020936B02A091CC01B091CD01CD91CDBF94
:10253000DD91DEBFFF91EF91DF91CF91BF91AF9120
:102540009F918F917F916F915F914F913F912F91CB
:102550001F910F91FF90EF90DF90CF90BF90AF90C1
:102560009F908F907F906F905F904F903F902F90B3
:102570001F900F900FBE0F900895CF93DF93009799
:1025800051F0EC010E94D608CE010E94AF17DF91F6
:10259000CF910C94780BDF91CF910895CF93DF9377
:1025A00000D000D01F92CDB7DEB7E091FC01F091D2
:1025B000FD011081F12CE12C112329F00580F68119
:1025C000E02DE080F1800E94D6080E94CC086C01CA
:1025D0008091F6019091F701C816D90608F04CC019
:1025E0000E94FB09D092F701C092F6010E94780B7D
:1025F00050E040E0BE016F5F7F4F8091F801909105
:10260000F9010E944910882381F2898187FDF0CF6A
:102610000C811D81D8011A968D919C91892B21F0F6
:10262000C80102960E9429090E94CC087C01809171
:10263000F6019091F701E816F90610F40E94FB09E3
:10264000F092F701E092F601E981E150E93080F67D
:102650000E2E000CFF0BED5CFC4ED80152968C91B7
:1026600052970C948B19B613B613FA13E213F413A2
:10267000B613B613FA13E213D092F701C092F60123
:10268000112351F0CE14DF0470F00E94780BB601D4
:10269000C7010E94D109ACCFE091FA01F091FB0192
:1026A000808161E0811160E00091F8011091F901F1
:1026B0000FB6F8940F92D8015D968C915D978F3F7D
:1026C00011F45D961C92F801868D8F3F09F4168EE9
:1026D0000F900FBED8015A968C915A9781113CC029
:1026E0005296ED91FC91A091CC01B091CD011F9635
:1026F000FC93EE931E97A091CC01B091CD01848103
:10270000958151969C938E9350978091CC01909196
:10271000CD01A481B5810C9613969C938E9312974C
:102720008091CC019091CD010C9695838483E091AA
:10273000CC01F091CD01C8014196958B848BF801B5
:1027400081898F5F818BC7018C199D09662311F0E8
:102750008FEF9FEF0E94190AC8010E94E7080E94AC
:10276000780B811145CF0E94BA0A42CF8160F801EF
:10277000828B2A813B8164857585620F731FA70157
:10278000C8010E948309882309F432CFD8015296E8
:102790008C91529782FF12C06A817B811C968D9129
:1027A0009C91680F791FA701C8010E94AD09D8014B
:1027B0005096ED91FC91C80109951ACF8E7FF801D2
:1027C000828BF5CF816052968C9352976A817B8180
:1027D0001D967C936E931C976E0D7F1D9701A7012C
:1027E000C8010E94830904CF81FD04C0C8010E9472
:1027F000BD12FECE8E7FF801828BFACE00E010E093
:102800008091F30181110CC080913E02823010F062
:102810000E94BA0A0115110599F30E940301F0CF35
:102820000FB6F8940F92E0911902F0911A02C68146
:10283000D781CE0102960E94290980913A028150E7
:1028400080933A028091F30181508093F3010F90BD
:102850000FBE8F89988D0E94BD12CE010E94BD12BD
:10286000CFCFCF93DF93EC010E94D608CE010E9418
:102870001317EC010E94780B209769F4259A2D9A82
:102880002FEF80E792E0215080409040E1F700C0B8
:1028900000001D9AF5CFCE01DF91CF9108957F9270
:1028A0008F929F92AF92BF92CF92DF92EF92FF9260
:1028B0000F931F93CF93DF93982EA92E762E872EFA
:1028C0007A01B22ECA010E9431146C01892B09F4DD
:1028D000F6C088E290E00E943114EC01892B09F4E3
:1028E000EBC0D88ECF8AA70165EA70E0C6010E94CE
:1028F0009A1981E0E81AF108EF89F88DEE0DFF1DB5
:10290000672D782DCE0149969B01285F3F4FDB0153
:102910004D91BD01DC014D93CD01AB0141505109F9
:10292000DA014C91442319F06217730781F718A25A
:10293000BE8AB9A21AA21B861A861D8A1C8AD9874A
:10294000C88785E090E08B1991099D878C87DB8B88
:10295000CA8B84E09E012D5D3F4FD9011D928A955F
:10296000E9F71FA29082DF011197AC9211971C9298
:10297000119780E88C9311971C9257971C9211978E
:102980001C92B397F983E8830115110519F0F8013A
:10299000D183C0830FB6F8940F9280913A028F5F73
:1029A00080933A028091CC019091CD01892B09F05E
:1029B00095C0D093CD01C093CC0180913A02813073
:1029C000A1F58EE392E00E94AC0A87E492E00E94B7
:1029D000AC0A80E592E00E94AC0A89E592E00E9490
:1029E000AC0A82E692E00E94AC0A8FE292E00E947A
:1029F000AC0A86E292E00E94AC0A8DE192E00E946D
:102A0000AC0A84E192E00E94AC0A8BE092E00E9462
:102A1000AC0A8FE292E090930A028093090286E268
:102A200092E09093080280930702809138028F5FB2
:102A300080933802AE8980916B028A1710F4A093BC
:102A40006B0229E02A9FD0011124A25CBD4F119690
:102A50000D90BC91A02DBD83AC8314968D919C915B
:102A600015979F838E831496ED91FC911597CE0157
:102A700002969383828315969C938E931497EE8986
:102A8000E29FF0011124E25CFD4FFB87EA87808121
:102A90008F5F80830F900FBE80913902882351F0A1
:102AA000E091CC01F091CD0196898E89981710F4B0
:102AB0000E94BA0A81E004C0C6010E94BD128FEFD5
:102AC000DF91CF911F910F91FF90EF90DF90CF900A
:102AD000BF90AF909F908F907F9008958091390222
:102AE0008111A3CFE091CC01F091CD0196898E891F
:102AF000891708F49ACFD093CD01C093CC0195CF1C
:102B00000F931F93CF93DF93082F162F869FC0013B
:102B100011244F960E943114EC01009779F11111A4
:102B200033C0998388830B8F1C8F0FB6F8940F9254
:102B3000888199812B8D4C8DBC01249F600D711D66
:102B400011247D836C831A8E9B838A832150330BDF
:102B5000429FB001439F700D1124860F971F9F83E2
:102B60008E838FEF8D8F8E8FCE0108960E94AC0AD8
:102B7000CE0141960E94AC0A0F900FBECE01DF91AC
:102B8000CF911F910F9108954F9699838883CBCF52
:102B9000CF93DF9360E081E00E948015EC01009705
:102BA00059F01D821C82198218821E8250E040E07A
:102BB00070E060E00E94400DCE01DF91CF9108955A
:102BC0000F931F930DEE11E020E040EC50E069E51B
:102BD00071E08EEF93E10E944F14813009F07FC0C5
:102BE0000FB6F8940F928091F8019091F901892B1A
:102BF000E1F482EE91E00E94AC0A89ED91E00E943E
:102C0000AC0A82EE91E09093FD018093FC0189ED86
:102C100091E09093FB018093FA0165E08AE00E94C5
:102C200080159093F9018093F8010F900FBE809169
:102C3000F8019091F901892B09F451C00BEE11E0D4
:102C400024E045E550E06EE571E08EEC92E10E94F3
:102C50004F14813009F043C0F8942FEF3FEF3093C9
:102C6000F5012093F4018093390210923C021092F6
:102C70003B02A89588E190EC0FB6F894A895809354
:102C800060000FBE90936000A091CC01B091CD0187
:102C9000CD91CDBFDD91DEBFFF91EF91DF91CF915F
:102CA000BF91AF919F918F917F916F915F914F9164
:102CB0003F912F911F910F91FF90EF90DF90CF9058
:102CC000BF90AF909F908F907F906F905F904F904C
:102CD0003F902F901F900F900FBE0F9008958091FE
:102CE00000011F910F9108950E94F4101895ECE6D1
:102CF000F2E01382128288EE93E0A0E0B0E08483D9
:102D00009583A683B78380E191E09183808385ECEE
:102D100090E09587848784EC90E09787868780ECA5
:102D200090E0918B808B81EC90E0938B828B82EC96
:102D300090E0958B848B86EC90E0978B868B118E40
:102D4000128E138E148EEAE0F3E089E090E0938314
:102D500082838AE090E09583848380E896E9A8E9FD
:102D6000B0E086839783A087B18780E28387128A49
:102D7000138A85E0858B81E0868B85E090E0A0E07A
:102D8000B0E0848F958FA68FB78F89E093E0918311
:102D9000808314860895789484B5826084BD84B558
:102DA000816084BD85B5826085BD85B5816085BD46
:102DB000EEE6F0E0808181608083E1E8F0E010825F
:102DC000808182608083808181608083E0E8F0E0A0
:102DD000808181608083E1EBF0E08081846080838A
:102DE000E0EBF0E0808181608083EAE7F0E08081C1
:102DF0008460808380818260808380818160808321
:102E00008081806880831092C100209105013091FB
:102E100006018FEF98E0821B930B90930201809341
:102E200001010E9497040F931F93CF93DF93823089
:102E3000910510F482E090E0E0912C03F0912D03D5
:102E400030E020E0B0E0A0E0309799F421153105A2
:102E500009F44AC0281B390B24303105D8F58A8182
:102E60009B816115710589F1FB0193838283FE01CA
:102E700011C0408151810281138148175907E0F048
:102E80004817590799F4109761F012960C9312970E
:102E900013961C933296CF01DF91CF911F910F9122
:102EA000089500932C0310932D03F4CF21153105C1
:102EB00051F04217530738F0A901DB019A01BD0117
:102EC000DF01F801C1CFEF01F9CF90932D0380937B
:102ED0002C03CDCFFE01E20FF31F8193919322507B
:102EE000310939832883D7CF20912A0330912B03CE
:102EF000232B41F4209103013091040130932B03E3
:102F000020932A03209101013091020121153105FE
:102F100041F42DB73EB74091050150910601241BA5
:102F2000350BE0912A03F0912B03E217F307A0F48D
:102F30002E1B3F0B2817390778F0AC014E5F5F4F0F
:102F40002417350748F04E0F5F1F50932B03409313
:102F50002A03819391939FCFF0E0E0E09CCFCF9341
:102F6000DF930097E9F0FC01329713821282A0915F
:102F70002C03B0912D03ED0130E020E01097A1F477
:102F800020813181820F931F20912A0330912B03DE
:102F90002817390709F061C0F0932B03E0932A0347
:102FA000DF91CF910895EA01CE17DF07E8F54A8156
:102FB0005B819E0141155105B1F7E901FB83EA836D
:102FC00049915991C40FD51FEC17FD0761F4808119
:102FD00091810296840F951FE901998388838281EC
:102FE00093819B838A83F0E0E0E012968D919C911F
:102FF00013970097B9F52D913C911197CD01029649
:10300000820F931F20912A0330912B032817390731
:1030100039F6309751F510922D0310922C03B0938E
:103020002B03A0932A03BCCFD383C2834081518159
:10303000840F951FC817D90761F44E5F5F4F8881D1
:103040009981480F591F518340838A819B819383C3
:1030500082832115310509F0B0CFF0932D03E09361
:103060002C039ECFFD01DC01C0CF13821282D7CF8B
:10307000E89409C097FB3EF4909580957095619512
:103080007F4F8F4F9F4F9923A9F0F92F96E9BB27C8
:103090009395F695879577956795B795F111F8CF44
:1030A000FAF4BB0F11F460FF1BC06F5F7F4F8F4FAF
:1030B0009F4F16C0882311F096E911C0772321F0A5
:1030C0009EE8872F762F05C0662371F096E8862F3D
:1030D00070E060E02AF09A95660F771F881FDAF794
:1030E000880F9695879597F908950E9488180C94F3
:1030F000F9180E94EB1838F00E94F21820F095237E
:1031000011F00C94E2180C94E81811240C942D1969
:103110000E940A1970F3959FC1F3950F50E0551F57
:10312000629FF001729FBB27F00DB11D639FAA271C
:10313000F00DB11DAA1F649F6627B00DA11D661F6B
:10314000829F2227B00DA11D621F739FB00DA11D8C
:10315000621F839FA00D611D221F749F3327A00D46
:10316000611D231F849F600D211D822F762F6A2FE2
:1031700011249F5750409AF0F1F088234AF0EE0F47
:10318000FF1FBB1F661F771F881F91505040A9F774
:103190009E3F510580F00C94E2180C942D195F3F6E
:1031A000E4F3983ED4F3869577956795B795F795B0
:1031B000E7959F5FC1F7FE2B880F911D9695879528
:1031C00097F9089597F99F6780E870E060E00895A7
:1031D0009FEF80EC089500240A941616170618062F
:1031E0000906089500240A9412161306140605060B
:1031F0000895092E0394000C11F4882352F0BB0F9C
:1032000040F4BF2B11F460FF04C06F5F7F4F8F4FFE
:103210009F4F089557FD9058440F551F59F05F3F39
:1032200071F04795880F97FB991F61F09F3F79F0E8
:1032300087950895121613061406551FF2CF46956A
:10324000F1DF08C0161617061806991FF1CF8695EC
:103250007105610508940895E894BB2766277727D0
:10326000CB0197F908950E943A196894B1110C9412
:103270002D1908950E94121988F09F5798F0B92FC0
:103280009927B751B0F0E1F0660F771F881F991F9B
:103290001AF0BA95C9F714C0B13091F00E942C19F8
:1032A000B1E008950C942C19672F782F8827B85F08
:1032B00039F0B93FCCF3869577956795B395D9F7F3
:1032C0003EF490958095709561957F4F8F4F9F4FFD
:1032D0000895A1E21A2EAA1BBB1BFD010DC0AA1F57
:1032E000BB1FEE1FFF1FA217B307E407F50720F06F
:1032F000A21BB30BE40BF50B661F771F881F991FEA
:103300001A9469F760957095809590959B01AC0132
:10331000BD01CF010895EE0FFF1F0590F491E02D40
:103320000994FB01DC0102C001900D924150504014
:10333000D8F70895DC0101C06D9341505040E0F78B
:063340000895F894FFCF90
:103346000400002E03800041434352580000000051
:1033560032018F00BC007F01ED00CB00DF000D0ABB
:1033660000436F6D6D616E642073656E74203A2044
:10337600007475726E20706F776572206F6E2F6F96
:103386006666007675700076646F776E0063686EA9
:1033960078740063687072760049444C4500546D39
:1033A600722053766300436F6E6E656374656400C6
:1033B6004765742053656E736F72204461746100B3
:1033C60070726F636573732073656E736F722064BA
:1033D6006174610073656E642073656E736F72202D
:1033E60064617461007374617274696E67206170E0
:1033F600706C69636174696F6E00496E7375666699
:0C340600696369656E742052414D00003E
:00000001FF
